{
  "_format": "hh-sol-artifact-1",
  "contractName": "Escrow",
  "sourceName": "contracts/Escrow.sol",
  "abi": [
    {
      "inputs": [],
      "stateMutability": "nonpayable",
      "type": "constructor"
    },
    {
      "inputs": [],
      "name": "deposit",
      "outputs": [],
      "stateMutability": "payable",
      "type": "function"
    },
    {
      "inputs": [
        {
          "internalType": "address",
          "name": "",
          "type": "address"
        }
      ],
      "name": "deposits",
      "outputs": [
        {
          "internalType": "uint256",
          "name": "",
          "type": "uint256"
        }
      ],
      "stateMutability": "view",
      "type": "function"
    },
    {
      "inputs": [],
      "name": "owner",
      "outputs": [
        {
          "internalType": "address",
          "name": "",
          "type": "address"
        }
      ],
      "stateMutability": "view",
      "type": "function"
    },
    {
      "inputs": [
        {
          "internalType": "address payable",
          "name": "payee",
          "type": "address"
        },
        {
          "internalType": "uint256",
          "name": "amount",
          "type": "uint256"
        }
      ],
      "name": "withdraw",
      "outputs": [],
      "stateMutability": "nonpayable",
      "type": "function"
    }
  ],
  "bytecode": "0x608060405234801561001057600080fd5b50336000806101000a81548173ffffffffffffffffffffffffffffffffffffffff021916908373ffffffffffffffffffffffffffffffffffffffff16021790555061066f806100606000396000f3fe60806040526004361061003f5760003560e01c80638da5cb5b14610044578063d0e30db01461006f578063f3fef3a314610079578063fc7e286d146100a2575b600080fd5b34801561005057600080fd5b506100596100df565b6040516100669190610466565b60405180910390f35b610077610103565b005b34801561008557600080fd5b506100a0600480360381019061009b919061038c565b61015b565b005b3480156100ae57600080fd5b506100c960048036038101906100c49190610363565b61030c565b6040516100d691906104c1565b60405180910390f35b60008054906101000a900473ffffffffffffffffffffffffffffffffffffffff1681565b34600160003373ffffffffffffffffffffffffffffffffffffffff1673ffffffffffffffffffffffffffffffffffffffff168152602001908152602001600020600082825461015291906104ed565b92505081905550565b60008054906101000a900473ffffffffffffffffffffffffffffffffffffffff1673ffffffffffffffffffffffffffffffffffffffff163373ffffffffffffffffffffffffffffffffffffffff16146101e9576040517f08c379a00000000000000000000000000000000000000000000000000000000081526004016101e0906104a1565b60405180910390fd5b80600160008473ffffffffffffffffffffffffffffffffffffffff1673ffffffffffffffffffffffffffffffffffffffff16815260200190815260200160002054101561026b576040517f08c379a000000000000000000000000000000000000000000000000000000000815260040161026290610481565b60405180910390fd5b80600160008473ffffffffffffffffffffffffffffffffffffffff1673ffffffffffffffffffffffffffffffffffffffff16815260200190815260200160002060008282546102ba9190610543565b925050819055508173ffffffffffffffffffffffffffffffffffffffff166108fc829081150290604051600060405180830381858888f19350505050158015610307573d6000803e3d6000fd5b505050565b60016020528060005260406000206000915090505481565b600081359050610333816105f4565b92915050565b6000813590506103488161060b565b92915050565b60008135905061035d81610622565b92915050565b60006020828403121561037557600080fd5b600061038384828501610324565b91505092915050565b6000806040838503121561039f57600080fd5b60006103ad85828601610339565b92505060206103be8582860161034e565b9150509250929050565b6103d181610577565b82525050565b60006103e46014836104dc565b91507f496e73756666696369656e742062616c616e63650000000000000000000000006000830152602082019050919050565b60006104246017836104dc565b91507f4f6e6c79206f776e65722063616e2077697468647261770000000000000000006000830152602082019050919050565b610460816105bb565b82525050565b600060208201905061047b60008301846103c8565b92915050565b6000602082019050818103600083015261049a816103d7565b9050919050565b600060208201905081810360008301526104ba81610417565b9050919050565b60006020820190506104d66000830184610457565b92915050565b600082825260208201905092915050565b60006104f8826105bb565b9150610503836105bb565b9250827fffffffffffffffffffffffffffffffffffffffffffffffffffffffffffffffff03821115610538576105376105c5565b5b828201905092915050565b600061054e826105bb565b9150610559836105bb565b92508282101561056c5761056b6105c5565b5b828203905092915050565b60006105828261059b565b9050919050565b60006105948261059b565b9050919050565b600073ffffffffffffffffffffffffffffffffffffffff82169050919050565b6000819050919050565b7f4e487b7100000000000000000000000000000000000000000000000000000000600052601160045260246000fd5b6105fd81610577565b811461060857600080fd5b50565b61061481610589565b811461061f57600080fd5b50565b61062b816105bb565b811461063657600080fd5b5056fea264697066735822122002ff87b23db20cc708162f47bf4914f1648df6bd97e70441e9fecce2e5e7dc8564736f6c63430008000033",
  "linkReferences": {},
  "deployedLinkReferences": {}
}