{
  "_format": "hh-sol-artifact-1",
  "contractName": "Escrow",
  "sourceName": "contracts/Escrow.sol",
  "abi": [
    {
      "inputs": [
        {
          "internalType": "address",
          "name": "_clearNodeSigner",
          "type": "address"
        }
      ],
      "stateMutability": "nonpayable",
      "type": "constructor"
    },
    {
      "anonymous": false,
      "inputs": [
        {
          "indexed": true,
          "internalType": "address",
          "name": "oldSigner",
          "type": "address"
        },
        {
          "indexed": true,
          "internalType": "address",
          "name": "newSigner",
          "type": "address"
        }
      ],
      "name": "ClearNodeSignerUpdated",
      "type": "event"
    },
    {
      "anonymous": false,
      "inputs": [
        {
          "indexed": true,
          "internalType": "address",
          "name": "player",
          "type": "address"
        },
        {
          "indexed": false,
          "internalType": "uint256",
          "name": "amount",
          "type": "uint256"
        }
      ],
      "name": "Deposit",
      "type": "event"
    },
    {
      "anonymous": false,
      "inputs": [
        {
          "indexed": true,
          "internalType": "bytes32",
          "name": "matchId",
          "type": "bytes32"
        },
        {
          "indexed": true,
          "internalType": "address",
          "name": "player",
          "type": "address"
        },
        {
          "indexed": false,
          "internalType": "uint256",
          "name": "amount",
          "type": "uint256"
        }
      ],
      "name": "MatchDeposit",
      "type": "event"
    },
    {
      "anonymous": false,
      "inputs": [
        {
          "indexed": true,
          "internalType": "bytes32",
          "name": "matchId",
          "type": "bytes32"
        },
        {
          "indexed": true,
          "internalType": "address",
          "name": "winner",
          "type": "address"
        },
        {
          "indexed": false,
          "internalType": "uint256",
          "name": "payout",
          "type": "uint256"
        }
      ],
      "name": "MatchSettled",
      "type": "event"
    },
    {
      "anonymous": false,
      "inputs": [
        {
          "indexed": true,
          "internalType": "address",
          "name": "payee",
          "type": "address"
        },
        {
          "indexed": false,
          "internalType": "uint256",
          "name": "amount",
          "type": "uint256"
        }
      ],
      "name": "Withdrawal",
      "type": "event"
    },
    {
      "inputs": [],
      "name": "clearNodeSigner",
      "outputs": [
        {
          "internalType": "address",
          "name": "",
          "type": "address"
        }
      ],
      "stateMutability": "view",
      "type": "function"
    },
    {
      "inputs": [],
      "name": "deposit",
      "outputs": [],
      "stateMutability": "payable",
      "type": "function"
    },
    {
      "inputs": [
        {
          "internalType": "bytes32",
          "name": "matchId",
          "type": "bytes32"
        }
      ],
      "name": "depositForMatch",
      "outputs": [],
      "stateMutability": "payable",
      "type": "function"
    },
    {
      "inputs": [
        {
          "internalType": "address",
          "name": "",
          "type": "address"
        }
      ],
      "name": "deposits",
      "outputs": [
        {
          "internalType": "uint256",
          "name": "",
          "type": "uint256"
        }
      ],
      "stateMutability": "view",
      "type": "function"
    },
    {
      "inputs": [
        {
          "internalType": "bytes32",
          "name": "matchId",
          "type": "bytes32"
        }
      ],
      "name": "getMatch",
      "outputs": [
        {
          "internalType": "address",
          "name": "player1",
          "type": "address"
        },
        {
          "internalType": "address",
          "name": "player2",
          "type": "address"
        },
        {
          "internalType": "uint256",
          "name": "stake1",
          "type": "uint256"
        },
        {
          "internalType": "uint256",
          "name": "stake2",
          "type": "uint256"
        },
        {
          "internalType": "bool",
          "name": "settled",
          "type": "bool"
        }
      ],
      "stateMutability": "view",
      "type": "function"
    },
    {
      "inputs": [
        {
          "internalType": "bytes32",
          "name": "matchId",
          "type": "bytes32"
        }
      ],
      "name": "isSettled",
      "outputs": [
        {
          "internalType": "bool",
          "name": "",
          "type": "bool"
        }
      ],
      "stateMutability": "view",
      "type": "function"
    },
    {
      "inputs": [
        {
          "internalType": "bytes32",
          "name": "",
          "type": "bytes32"
        }
      ],
      "name": "matches",
      "outputs": [
        {
          "internalType": "address",
          "name": "player1",
          "type": "address"
        },
        {
          "internalType": "address",
          "name": "player2",
          "type": "address"
        },
        {
          "internalType": "uint256",
          "name": "stake1",
          "type": "uint256"
        },
        {
          "internalType": "uint256",
          "name": "stake2",
          "type": "uint256"
        },
        {
          "internalType": "bool",
          "name": "settled",
          "type": "bool"
        }
      ],
      "stateMutability": "view",
      "type": "function"
    },
    {
      "inputs": [],
      "name": "owner",
      "outputs": [
        {
          "internalType": "address",
          "name": "",
          "type": "address"
        }
      ],
      "stateMutability": "view",
      "type": "function"
    },
    {
      "inputs": [
        {
          "internalType": "address",
          "name": "_newSigner",
          "type": "address"
        }
      ],
      "name": "setClearNodeSigner",
      "outputs": [],
      "stateMutability": "nonpayable",
      "type": "function"
    },
    {
      "inputs": [
        {
          "internalType": "bytes32",
          "name": "matchId",
          "type": "bytes32"
        },
        {
          "internalType": "address",
          "name": "winner",
          "type": "address"
        },
        {
          "internalType": "bytes",
          "name": "signedState",
          "type": "bytes"
        }
      ],
      "name": "settle",
      "outputs": [],
      "stateMutability": "nonpayable",
      "type": "function"
    },
    {
      "inputs": [
        {
          "internalType": "address payable",
          "name": "payee",
          "type": "address"
        },
        {
          "internalType": "uint256",
          "name": "amount",
          "type": "uint256"
        }
      ],
      "name": "withdraw",
      "outputs": [],
      "stateMutability": "nonpayable",
      "type": "function"
    },
    {
      "inputs": [
        {
          "internalType": "address payable",
          "name": "to",
          "type": "address"
        }
      ],
      "name": "withdrawRake",
      "outputs": [],
      "stateMutability": "nonpayable",
      "type": "function"
    }
  ],
  "bytecode": "0x60806040523480156200001157600080fd5b50604051620025933803806200259383398181016040528101906200003791906200019b565b600073ffffffffffffffffffffffffffffffffffffffff168173ffffffffffffffffffffffffffffffffffffffff1603620000a9576040517f08c379a0000000000000000000000000000000000000000000000000000000008152600401620000a0906200022e565b60405180910390fd5b336000806101000a81548173ffffffffffffffffffffffffffffffffffffffff021916908373ffffffffffffffffffffffffffffffffffffffff16021790555080600160006101000a81548173ffffffffffffffffffffffffffffffffffffffff021916908373ffffffffffffffffffffffffffffffffffffffff1602179055505062000250565b600080fd5b600073ffffffffffffffffffffffffffffffffffffffff82169050919050565b6000620001638262000136565b9050919050565b620001758162000156565b81146200018157600080fd5b50565b60008151905062000195816200016a565b92915050565b600060208284031215620001b457620001b362000131565b5b6000620001c48482850162000184565b91505092915050565b600082825260208201905092915050565b7f496e76616c6964207369676e6572000000000000000000000000000000000000600082015250565b600062000216600e83620001cd565b91506200022382620001de565b602082019050919050565b60006020820190508181036000830152620002498162000207565b9050919050565b61233380620002606000396000f3fe6080604052600436106100a75760003560e01c8063bd07f3c911610064578063bd07f3c9146101b1578063d0e30db0146101ee578063e01821b9146101f8578063f3fef3a314610221578063fc7e286d1461024a578063fcc6077d14610287576100a7565b80631369b2b4146100ac5780631837d827146100d55780632f79fbde146101005780638da5cb5b146101295780639fe9ada314610154578063ae26b70b14610195575b600080fd5b3480156100b857600080fd5b506100d360048036038101906100ce91906115fe565b6102c8565b005b3480156100e157600080fd5b506100ea6108ce565b6040516100f79190611681565b60405180910390f35b34801561010c57600080fd5b506101276004803603810190610122919061169c565b6108f4565b005b34801561013557600080fd5b5061013e610ab1565b60405161014b9190611681565b60405180910390f35b34801561016057600080fd5b5061017b600480360381019061017691906116c9565b610ad5565b60405161018c95949392919061172a565b60405180910390f35b6101af60048036038101906101aa91906116c9565b610b58565b005b3480156101bd57600080fd5b506101d860048036038101906101d391906116c9565b610e20565b6040516101e5919061177d565b60405180910390f35b6101f6610e4d565b005b34801561020457600080fd5b5061021f600480360381019061021a91906117d6565b610ef3565b005b34801561022d57600080fd5b506102486004803603810190610243919061182f565b61107a565b005b34801561025657600080fd5b50610271600480360381019061026c919061169c565b611279565b60405161027e919061186f565b60405180910390f35b34801561029357600080fd5b506102ae60048036038101906102a991906116c9565b611291565b6040516102bf95949392919061172a565b60405180910390f35b60006002600086815260200190815260200160002090508060040160009054906101000a900460ff1615610331576040517f08c379a0000000000000000000000000000000000000000000000000000000008152600401610328906118e7565b60405180910390fd5b600073ffffffffffffffffffffffffffffffffffffffff168160000160009054906101000a900473ffffffffffffffffffffffffffffffffffffffff1673ffffffffffffffffffffffffffffffffffffffff16141580156103e35750600073ffffffffffffffffffffffffffffffffffffffff168160010160009054906101000a900473ffffffffffffffffffffffffffffffffffffffff1673ffffffffffffffffffffffffffffffffffffffff1614155b610422576040517f08c379a000000000000000000000000000000000000000000000000000000000815260040161041990611953565b60405180910390fd5b8060000160009054906101000a900473ffffffffffffffffffffffffffffffffffffffff1673ffffffffffffffffffffffffffffffffffffffff168473ffffffffffffffffffffffffffffffffffffffff1614806104cf57508060010160009054906101000a900473ffffffffffffffffffffffffffffffffffffffff1673ffffffffffffffffffffffffffffffffffffffff168473ffffffffffffffffffffffffffffffffffffffff16145b61050e576040517f08c379a0000000000000000000000000000000000000000000000000000000008152600401610505906119bf565b60405180910390fd5b60008585604051602001610523929190611a48565b604051602081830303815290604052805190602001209050600061054682611329565b9050600160009054906101000a900473ffffffffffffffffffffffffffffffffffffffff1673ffffffffffffffffffffffffffffffffffffffff1661058c828787611359565b73ffffffffffffffffffffffffffffffffffffffff16146105e2576040517f08c379a00000000000000000000000000000000000000000000000000000000081526004016105d990611ac0565b60405180910390fd5b505060018160040160006101000a81548160ff0219169083151502179055506000816003015482600201546106179190611b0f565b90506000606460028361062a9190611b43565b6106349190611bb4565b9050600081836106449190611be5565b9050600060646050836106579190611b43565b6106619190611bb4565b905060008873ffffffffffffffffffffffffffffffffffffffff168260405161068990611c4a565b60006040518083038185875af1925050503d80600081146106c6576040519150601f19603f3d011682016040523d82523d6000602084013e6106cb565b606091505b505090508061070f576040517f08c379a000000000000000000000000000000000000000000000000000000000815260040161070690611cab565b60405180910390fd5b60008660000160009054906101000a900473ffffffffffffffffffffffffffffffffffffffff1673ffffffffffffffffffffffffffffffffffffffff168a73ffffffffffffffffffffffffffffffffffffffff1614610792578660000160009054906101000a900473ffffffffffffffffffffffffffffffffffffffff166107b8565b8660010160009054906101000a900473ffffffffffffffffffffffffffffffffffffffff165b905060008173ffffffffffffffffffffffffffffffffffffffff1684866107df9190611be5565b6040516107eb90611c4a565b60006040518083038185875af1925050503d8060008114610828576040519150601f19603f3d011682016040523d82523d6000602084013e61082d565b606091505b5050905080610871576040517f08c379a000000000000000000000000000000000000000000000000000000000815260040161086890611d17565b60405180910390fd5b8a73ffffffffffffffffffffffffffffffffffffffff168c7f14ac1a1d6d58b42c5b0a60d79339143a7e35eb5506b03e3170250535895d6833866040516108b8919061186f565b60405180910390a3505050505050505050505050565b600160009054906101000a900473ffffffffffffffffffffffffffffffffffffffff1681565b60008054906101000a900473ffffffffffffffffffffffffffffffffffffffff1673ffffffffffffffffffffffffffffffffffffffff163373ffffffffffffffffffffffffffffffffffffffff1614610982576040517f08c379a000000000000000000000000000000000000000000000000000000000815260040161097990611d83565b60405180910390fd5b600073ffffffffffffffffffffffffffffffffffffffff168173ffffffffffffffffffffffffffffffffffffffff16036109f1576040517f08c379a00000000000000000000000000000000000000000000000000000000081526004016109e890611def565b60405180910390fd5b8073ffffffffffffffffffffffffffffffffffffffff16600160009054906101000a900473ffffffffffffffffffffffffffffffffffffffff1673ffffffffffffffffffffffffffffffffffffffff167fe4e31f0d8c9b7347323d54dd7766c3af36fe7e9e8e101d0ebcccae68cf57957960405160405180910390a380600160006101000a81548173ffffffffffffffffffffffffffffffffffffffff021916908373ffffffffffffffffffffffffffffffffffffffff16021790555050565b60008054906101000a900473ffffffffffffffffffffffffffffffffffffffff1681565b60026020528060005260406000206000915090508060000160009054906101000a900473ffffffffffffffffffffffffffffffffffffffff16908060010160009054906101000a900473ffffffffffffffffffffffffffffffffffffffff16908060020154908060030154908060040160009054906101000a900460ff16905085565b60003411610b9b576040517f08c379a0000000000000000000000000000000000000000000000000000000008152600401610b9290611e5b565b60405180910390fd5b6000600260008381526020019081526020016000209050600073ffffffffffffffffffffffffffffffffffffffff168160000160009054906101000a900473ffffffffffffffffffffffffffffffffffffffff1673ffffffffffffffffffffffffffffffffffffffff1603610c5b57338160000160006101000a81548173ffffffffffffffffffffffffffffffffffffffff021916908373ffffffffffffffffffffffffffffffffffffffff160217905550348160020181905550610dcd565b600073ffffffffffffffffffffffffffffffffffffffff168160010160009054906101000a900473ffffffffffffffffffffffffffffffffffffffff1673ffffffffffffffffffffffffffffffffffffffff1614610cee576040517f08c379a0000000000000000000000000000000000000000000000000000000008152600401610ce590611ec7565b60405180910390fd5b8060000160009054906101000a900473ffffffffffffffffffffffffffffffffffffffff1673ffffffffffffffffffffffffffffffffffffffff163373ffffffffffffffffffffffffffffffffffffffff1603610d80576040517f08c379a0000000000000000000000000000000000000000000000000000000008152600401610d7790611f33565b60405180910390fd5b338160010160006101000a81548173ffffffffffffffffffffffffffffffffffffffff021916908373ffffffffffffffffffffffffffffffffffffffff1602179055503481600301819055505b3373ffffffffffffffffffffffffffffffffffffffff16827f4b83698796bda6c2b0699ae02fc3ec27136d6ba08e36a38db94a2a6d282768b634604051610e14919061186f565b60405180910390a35050565b60006002600083815260200190815260200160002060040160009054906101000a900460ff169050919050565b34600360003373ffffffffffffffffffffffffffffffffffffffff1673ffffffffffffffffffffffffffffffffffffffff1681526020019081526020016000206000828254610e9c9190611b0f565b925050819055503373ffffffffffffffffffffffffffffffffffffffff167fe1fffcc4923d04b559f4d29a8bfc6cda04eb5b0d3c460751c2402c5c5cc9109c34604051610ee9919061186f565b60405180910390a2565b60008054906101000a900473ffffffffffffffffffffffffffffffffffffffff1673ffffffffffffffffffffffffffffffffffffffff163373ffffffffffffffffffffffffffffffffffffffff1614610f81576040517f08c379a0000000000000000000000000000000000000000000000000000000008152600401610f7890611d83565b60405180910390fd5b600047905060008111610fc9576040517f08c379a0000000000000000000000000000000000000000000000000000000008152600401610fc090611f9f565b60405180910390fd5b60008273ffffffffffffffffffffffffffffffffffffffff1682604051610fef90611c4a565b60006040518083038185875af1925050503d806000811461102c576040519150601f19603f3d011682016040523d82523d6000602084013e611031565b606091505b5050905080611075576040517f08c379a000000000000000000000000000000000000000000000000000000000815260040161106c9061200b565b60405180910390fd5b505050565b60008054906101000a900473ffffffffffffffffffffffffffffffffffffffff1673ffffffffffffffffffffffffffffffffffffffff163373ffffffffffffffffffffffffffffffffffffffff1614611108576040517f08c379a00000000000000000000000000000000000000000000000000000000081526004016110ff90611d83565b60405180910390fd5b80600360008473ffffffffffffffffffffffffffffffffffffffff1673ffffffffffffffffffffffffffffffffffffffff16815260200190815260200160002054101561118a576040517f08c379a000000000000000000000000000000000000000000000000000000000815260040161118190612077565b60405180910390fd5b80600360008473ffffffffffffffffffffffffffffffffffffffff1673ffffffffffffffffffffffffffffffffffffffff16815260200190815260200160002060008282546111d99190611be5565b925050819055508173ffffffffffffffffffffffffffffffffffffffff166108fc829081150290604051600060405180830381858888f19350505050158015611226573d6000803e3d6000fd5b508173ffffffffffffffffffffffffffffffffffffffff167f7fcf532c15f0a6db0bd6d0e038bea71d30d808c7d98cb3bf7268a95bf5081b658260405161126d919061186f565b60405180910390a25050565b60036020528060005260406000206000915090505481565b6000806000806000806002600088815260200190815260200160002090508060000160009054906101000a900473ffffffffffffffffffffffffffffffffffffffff168160010160009054906101000a900473ffffffffffffffffffffffffffffffffffffffff16826002015483600301548460040160009054906101000a900460ff16955095509550955095505091939590929450565b60008160405160200161133c91906120ee565b604051602081830303815290604052805190602001209050919050565b6000604183839050146113a1576040517f08c379a000000000000000000000000000000000000000000000000000000000815260040161139890612160565b60405180910390fd5b60008060008535925060208601359150604086013560001a9050601b8160ff1610156113d757601b816113d4919061218d565b90505b601b8160ff1614806113ec5750601c8160ff16145b61142b576040517f08c379a00000000000000000000000000000000000000000000000000000000081526004016114229061220e565b60405180910390fd5b600060018883868660405160008152602001604052604051611450949392919061224c565b6020604051602081039080840390855afa158015611472573d6000803e3d6000fd5b505050602060405103519050600073ffffffffffffffffffffffffffffffffffffffff168173ffffffffffffffffffffffffffffffffffffffff16036114ed576040517f08c379a00000000000000000000000000000000000000000000000000000000081526004016114e4906122dd565b60405180910390fd5b809450505050509392505050565b600080fd5b600080fd5b6000819050919050565b61151881611505565b811461152357600080fd5b50565b6000813590506115358161150f565b92915050565b600073ffffffffffffffffffffffffffffffffffffffff82169050919050565b60006115668261153b565b9050919050565b6115768161155b565b811461158157600080fd5b50565b6000813590506115938161156d565b92915050565b600080fd5b600080fd5b600080fd5b60008083601f8401126115be576115bd611599565b5b8235905067ffffffffffffffff8111156115db576115da61159e565b5b6020830191508360018202830111156115f7576115f66115a3565b5b9250929050565b60008060008060608587031215611618576116176114fb565b5b600061162687828801611526565b945050602061163787828801611584565b935050604085013567ffffffffffffffff81111561165857611657611500565b5b611664878288016115a8565b925092505092959194509250565b61167b8161155b565b82525050565b60006020820190506116966000830184611672565b92915050565b6000602082840312156116b2576116b16114fb565b5b60006116c084828501611584565b91505092915050565b6000602082840312156116df576116de6114fb565b5b60006116ed84828501611526565b91505092915050565b6000819050919050565b611709816116f6565b82525050565b60008115159050919050565b6117248161170f565b82525050565b600060a08201905061173f6000830188611672565b61174c6020830187611672565b6117596040830186611700565b6117666060830185611700565b611773608083018461171b565b9695505050505050565b6000602082019050611792600083018461171b565b92915050565b60006117a38261153b565b9050919050565b6117b381611798565b81146117be57600080fd5b50565b6000813590506117d0816117aa565b92915050565b6000602082840312156117ec576117eb6114fb565b5b60006117fa848285016117c1565b91505092915050565b61180c816116f6565b811461181757600080fd5b50565b60008135905061182981611803565b92915050565b60008060408385031215611846576118456114fb565b5b6000611854858286016117c1565b92505060206118658582860161181a565b9150509250929050565b60006020820190506118846000830184611700565b92915050565b600082825260208201905092915050565b7f416c726561647920736574746c65640000000000000000000000000000000000600082015250565b60006118d1600f8361188a565b91506118dc8261189b565b602082019050919050565b60006020820190508181036000830152611900816118c4565b9050919050565b7f4d61746368206e6f742072656164790000000000000000000000000000000000600082015250565b600061193d600f8361188a565b915061194882611907565b602082019050919050565b6000602082019050818103600083015261196c81611930565b9050919050565b7f57696e6e6572206e6f7420696e206d6174636800000000000000000000000000600082015250565b60006119a960138361188a565b91506119b482611973565b602082019050919050565b600060208201905081810360008301526119d88161199c565b9050919050565b6000819050919050565b6119fa6119f582611505565b6119df565b82525050565b60008160601b9050919050565b6000611a1882611a00565b9050919050565b6000611a2a82611a0d565b9050919050565b611a42611a3d8261155b565b611a1f565b82525050565b6000611a5482856119e9565b602082019150611a648284611a31565b6014820191508190509392505050565b7f496e76616c696420436c6561724e6f6465207369676e61747572650000000000600082015250565b6000611aaa601b8361188a565b9150611ab582611a74565b602082019050919050565b60006020820190508181036000830152611ad981611a9d565b9050919050565b7f4e487b7100000000000000000000000000000000000000000000000000000000600052601160045260246000fd5b6000611b1a826116f6565b9150611b25836116f6565b9250828201905080821115611b3d57611b3c611ae0565b5b92915050565b6000611b4e826116f6565b9150611b59836116f6565b9250828202611b67816116f6565b91508282048414831517611b7e57611b7d611ae0565b5b5092915050565b7f4e487b7100000000000000000000000000000000000000000000000000000000600052601260045260246000fd5b6000611bbf826116f6565b9150611bca836116f6565b925082611bda57611bd9611b85565b5b828204905092915050565b6000611bf0826116f6565b9150611bfb836116f6565b9250828203905081811115611c1357611c12611ae0565b5b92915050565b600081905092915050565b50565b6000611c34600083611c19565b9150611c3f82611c24565b600082019050919050565b6000611c5582611c27565b9150819050919050565b7f57696e6e6572207472616e73666572206661696c656400000000000000000000600082015250565b6000611c9560168361188a565b9150611ca082611c5f565b602082019050919050565b60006020820190508181036000830152611cc481611c88565b9050919050565b7f4c6f736572207472616e73666572206661696c65640000000000000000000000600082015250565b6000611d0160158361188a565b9150611d0c82611ccb565b602082019050919050565b60006020820190508181036000830152611d3081611cf4565b9050919050565b7f4f6e6c79206f776e657200000000000000000000000000000000000000000000600082015250565b6000611d6d600a8361188a565b9150611d7882611d37565b602082019050919050565b60006020820190508181036000830152611d9c81611d60565b9050919050565b7f496e76616c6964207369676e6572000000000000000000000000000000000000600082015250565b6000611dd9600e8361188a565b9150611de482611da3565b602082019050919050565b60006020820190508181036000830152611e0881611dcc565b9050919050565b7f4d7573742073656e642076616c75650000000000000000000000000000000000600082015250565b6000611e45600f8361188a565b9150611e5082611e0f565b602082019050919050565b60006020820190508181036000830152611e7481611e38565b9050919050565b7f4d617463682066756c6c00000000000000000000000000000000000000000000600082015250565b6000611eb1600a8361188a565b9150611ebc82611e7b565b602082019050919050565b60006020820190508181036000830152611ee081611ea4565b9050919050565b7f416c7265616479206a6f696e6564000000000000000000000000000000000000600082015250565b6000611f1d600e8361188a565b9150611f2882611ee7565b602082019050919050565b60006020820190508181036000830152611f4c81611f10565b9050919050565b7f4e6f2072616b6520746f20776974686472617700000000000000000000000000600082015250565b6000611f8960138361188a565b9150611f9482611f53565b602082019050919050565b60006020820190508181036000830152611fb881611f7c565b9050919050565b7f5769746864726177206661696c65640000000000000000000000000000000000600082015250565b6000611ff5600f8361188a565b915061200082611fbf565b602082019050919050565b6000602082019050818103600083015261202481611fe8565b9050919050565b7f496e73756666696369656e742062616c616e6365000000000000000000000000600082015250565b600061206160148361188a565b915061206c8261202b565b602082019050919050565b6000602082019050818103600083015261209081612054565b9050919050565b600081905092915050565b7f19457468657265756d205369676e6564204d6573736167653a0a333200000000600082015250565b60006120d8601c83612097565b91506120e3826120a2565b601c82019050919050565b60006120f9826120cb565b915061210582846119e9565b60208201915081905092915050565b7f496e76616c6964207369676e6174757265206c656e6774680000000000000000600082015250565b600061214a60188361188a565b915061215582612114565b602082019050919050565b600060208201905081810360008301526121798161213d565b9050919050565b600060ff82169050919050565b600061219882612180565b91506121a383612180565b9250828201905060ff8111156121bc576121bb611ae0565b5b92915050565b7f496e76616c696420762076616c75650000000000000000000000000000000000600082015250565b60006121f8600f8361188a565b9150612203826121c2565b602082019050919050565b60006020820190508181036000830152612227816121eb565b9050919050565b61223781611505565b82525050565b61224681612180565b82525050565b6000608082019050612261600083018761222e565b61226e602083018661223d565b61227b604083018561222e565b612288606083018461222e565b95945050505050565b7f496e76616c6964207369676e6174757265000000000000000000000000000000600082015250565b60006122c760118361188a565b91506122d282612291565b602082019050919050565b600060208201905081810360008301526122f6816122ba565b905091905056fea2646970667358221220c47572b4b4be54ab811913b1ddbeb83e316ead6a5d2ae5ad1b3fe41d4e3a7cf964736f6c63430008130033",
  "linkReferences": {},
  "deployedLinkReferences": {}
}