{
  "_format": "hh-sol-artifact-1",
  "contractName": "Escrow",
  "sourceName": "contracts/Escrow.sol",
  "abi": [
    {
      "inputs": [
        {
          "internalType": "address",
          "name": "_clearNodeSigner",
          "type": "address"
        }
      ],
      "stateMutability": "nonpayable",
      "type": "constructor"
    },
    {
      "anonymous": false,
      "inputs": [
        {
          "indexed": true,
          "internalType": "address",
          "name": "oldSigner",
          "type": "address"
        },
        {
          "indexed": true,
          "internalType": "address",
          "name": "newSigner",
          "type": "address"
        }
      ],
      "name": "ClearNodeSignerUpdated",
      "type": "event"
    },
    {
      "anonymous": false,
      "inputs": [
        {
          "indexed": true,
          "internalType": "address",
          "name": "player",
          "type": "address"
        },
        {
          "indexed": false,
          "internalType": "uint256",
          "name": "amount",
          "type": "uint256"
        }
      ],
      "name": "Deposit",
      "type": "event"
    },
    {
      "anonymous": false,
      "inputs": [
        {
          "indexed": true,
          "internalType": "bytes32",
          "name": "matchId",
          "type": "bytes32"
        },
        {
          "indexed": true,
          "internalType": "address",
          "name": "player",
          "type": "address"
        },
        {
          "indexed": false,
          "internalType": "uint256",
          "name": "amount",
          "type": "uint256"
        }
      ],
      "name": "MatchDeposit",
      "type": "event"
    },
    {
      "anonymous": false,
      "inputs": [
        {
          "indexed": true,
          "internalType": "bytes32",
          "name": "matchId",
          "type": "bytes32"
        },
        {
          "indexed": true,
          "internalType": "address",
          "name": "winner",
          "type": "address"
        },
        {
          "indexed": false,
          "internalType": "uint256",
          "name": "payout",
          "type": "uint256"
        }
      ],
      "name": "MatchSettled",
      "type": "event"
    },
    {
      "anonymous": false,
      "inputs": [
        {
          "indexed": true,
          "internalType": "address",
          "name": "payee",
          "type": "address"
        },
        {
          "indexed": false,
          "internalType": "uint256",
          "name": "amount",
          "type": "uint256"
        }
      ],
      "name": "Withdrawal",
      "type": "event"
    },
    {
      "inputs": [],
      "name": "clearNodeSigner",
      "outputs": [
        {
          "internalType": "address",
          "name": "",
          "type": "address"
        }
      ],
      "stateMutability": "view",
      "type": "function"
    },
    {
      "inputs": [],
      "name": "deposit",
      "outputs": [],
      "stateMutability": "payable",
      "type": "function"
    },
    {
      "inputs": [
        {
          "internalType": "bytes32",
          "name": "matchId",
          "type": "bytes32"
        }
      ],
      "name": "depositForMatch",
      "outputs": [],
      "stateMutability": "payable",
      "type": "function"
    },
    {
      "inputs": [
        {
          "internalType": "address",
          "name": "",
          "type": "address"
        }
      ],
      "name": "deposits",
      "outputs": [
        {
          "internalType": "uint256",
          "name": "",
          "type": "uint256"
        }
      ],
      "stateMutability": "view",
      "type": "function"
    },
    {
      "inputs": [
        {
          "internalType": "bytes32",
          "name": "matchId",
          "type": "bytes32"
        }
      ],
      "name": "getMatch",
      "outputs": [
        {
          "internalType": "address",
          "name": "player1",
          "type": "address"
        },
        {
          "internalType": "address",
          "name": "player2",
          "type": "address"
        },
        {
          "internalType": "uint256",
          "name": "stake1",
          "type": "uint256"
        },
        {
          "internalType": "uint256",
          "name": "stake2",
          "type": "uint256"
        },
        {
          "internalType": "bool",
          "name": "settled",
          "type": "bool"
        }
      ],
      "stateMutability": "view",
      "type": "function"
    },
    {
      "inputs": [
        {
          "internalType": "bytes32",
          "name": "matchId",
          "type": "bytes32"
        }
      ],
      "name": "isSettled",
      "outputs": [
        {
          "internalType": "bool",
          "name": "",
          "type": "bool"
        }
      ],
      "stateMutability": "view",
      "type": "function"
    },
    {
      "inputs": [
        {
          "internalType": "bytes32",
          "name": "",
          "type": "bytes32"
        }
      ],
      "name": "matches",
      "outputs": [
        {
          "internalType": "address",
          "name": "player1",
          "type": "address"
        },
        {
          "internalType": "address",
          "name": "player2",
          "type": "address"
        },
        {
          "internalType": "uint256",
          "name": "stake1",
          "type": "uint256"
        },
        {
          "internalType": "uint256",
          "name": "stake2",
          "type": "uint256"
        },
        {
          "internalType": "bool",
          "name": "settled",
          "type": "bool"
        }
      ],
      "stateMutability": "view",
      "type": "function"
    },
    {
      "inputs": [],
      "name": "owner",
      "outputs": [
        {
          "internalType": "address",
          "name": "",
          "type": "address"
        }
      ],
      "stateMutability": "view",
      "type": "function"
    },
    {
      "inputs": [
        {
          "internalType": "address",
          "name": "_newSigner",
          "type": "address"
        }
      ],
      "name": "setClearNodeSigner",
      "outputs": [],
      "stateMutability": "nonpayable",
      "type": "function"
    },
    {
      "inputs": [
        {
          "internalType": "bytes32",
          "name": "matchId",
          "type": "bytes32"
        },
        {
          "internalType": "address",
          "name": "winner",
          "type": "address"
        },
        {
          "internalType": "bytes",
          "name": "signedState",
          "type": "bytes"
        }
      ],
      "name": "settle",
      "outputs": [],
      "stateMutability": "nonpayable",
      "type": "function"
    },
    {
      "inputs": [
        {
          "internalType": "address payable",
          "name": "payee",
          "type": "address"
        },
        {
          "internalType": "uint256",
          "name": "amount",
          "type": "uint256"
        }
      ],
      "name": "withdraw",
      "outputs": [],
      "stateMutability": "nonpayable",
      "type": "function"
    }
  ],
  "bytecode": "0x60806040523480156200001157600080fd5b506040516200201a3803806200201a83398181016040528101906200003791906200019b565b600073ffffffffffffffffffffffffffffffffffffffff168173ffffffffffffffffffffffffffffffffffffffff1603620000a9576040517f08c379a0000000000000000000000000000000000000000000000000000000008152600401620000a0906200022e565b60405180910390fd5b336000806101000a81548173ffffffffffffffffffffffffffffffffffffffff021916908373ffffffffffffffffffffffffffffffffffffffff16021790555080600160006101000a81548173ffffffffffffffffffffffffffffffffffffffff021916908373ffffffffffffffffffffffffffffffffffffffff1602179055505062000250565b600080fd5b600073ffffffffffffffffffffffffffffffffffffffff82169050919050565b6000620001638262000136565b9050919050565b620001758162000156565b81146200018157600080fd5b50565b60008151905062000195816200016a565b92915050565b600060208284031215620001b457620001b362000131565b5b6000620001c48482850162000184565b91505092915050565b600082825260208201905092915050565b7f496e76616c6964207369676e6572000000000000000000000000000000000000600082015250565b600062000216600e83620001cd565b91506200022382620001de565b602082019050919050565b60006020820190508181036000830152620002498162000207565b9050919050565b611dba80620002606000396000f3fe60806040526004361061009c5760003560e01c8063ae26b70b11610064578063ae26b70b1461018a578063bd07f3c9146101a6578063d0e30db0146101e3578063f3fef3a3146101ed578063fc7e286d14610216578063fcc6077d146102535761009c565b80631369b2b4146100a15780631837d827146100ca5780632f79fbde146100f55780638da5cb5b1461011e5780639fe9ada314610149575b600080fd5b3480156100ad57600080fd5b506100c860048036038101906100c39190611298565b610294565b005b3480156100d657600080fd5b506100df6106ef565b6040516100ec919061131b565b60405180910390f35b34801561010157600080fd5b5061011c60048036038101906101179190611336565b610715565b005b34801561012a57600080fd5b506101336108d2565b604051610140919061131b565b60405180910390f35b34801561015557600080fd5b50610170600480360381019061016b9190611363565b6108f6565b6040516101819594939291906113c4565b60405180910390f35b6101a4600480360381019061019f9190611363565b610979565b005b3480156101b257600080fd5b506101cd60048036038101906101c89190611363565b610c41565b6040516101da9190611417565b60405180910390f35b6101eb610c6e565b005b3480156101f957600080fd5b50610214600480360381019061020f919061149c565b610d14565b005b34801561022257600080fd5b5061023d60048036038101906102389190611336565b610f13565b60405161024a91906114dc565b60405180910390f35b34801561025f57600080fd5b5061027a60048036038101906102759190611363565b610f2b565b60405161028b9594939291906113c4565b60405180910390f35b60006002600086815260200190815260200160002090508060040160009054906101000a900460ff16156102fd576040517f08c379a00000000000000000000000000000000000000000000000000000000081526004016102f490611554565b60405180910390fd5b600073ffffffffffffffffffffffffffffffffffffffff168160000160009054906101000a900473ffffffffffffffffffffffffffffffffffffffff1673ffffffffffffffffffffffffffffffffffffffff16141580156103af5750600073ffffffffffffffffffffffffffffffffffffffff168160010160009054906101000a900473ffffffffffffffffffffffffffffffffffffffff1673ffffffffffffffffffffffffffffffffffffffff1614155b6103ee576040517f08c379a00000000000000000000000000000000000000000000000000000000081526004016103e5906115c0565b60405180910390fd5b8060000160009054906101000a900473ffffffffffffffffffffffffffffffffffffffff1673ffffffffffffffffffffffffffffffffffffffff168473ffffffffffffffffffffffffffffffffffffffff16148061049b57508060010160009054906101000a900473ffffffffffffffffffffffffffffffffffffffff1673ffffffffffffffffffffffffffffffffffffffff168473ffffffffffffffffffffffffffffffffffffffff16145b6104da576040517f08c379a00000000000000000000000000000000000000000000000000000000081526004016104d19061162c565b60405180910390fd5b600085856040516020016104ef9291906116b5565b604051602081830303815290604052805190602001209050600061051282610fc3565b90506000610521828787610ff3565b9050600160009054906101000a900473ffffffffffffffffffffffffffffffffffffffff1673ffffffffffffffffffffffffffffffffffffffff168173ffffffffffffffffffffffffffffffffffffffff16146105b3576040517f08c379a00000000000000000000000000000000000000000000000000000000081526004016105aa9061172d565b60405180910390fd5b60018460040160006101000a81548160ff0219169083151502179055506000846003015485600201546105e6919061177c565b905060008873ffffffffffffffffffffffffffffffffffffffff168260405161060e906117e1565b60006040518083038185875af1925050503d806000811461064b576040519150601f19603f3d011682016040523d82523d6000602084013e610650565b606091505b5050905080610694576040517f08c379a000000000000000000000000000000000000000000000000000000000815260040161068b90611842565b60405180910390fd5b8873ffffffffffffffffffffffffffffffffffffffff168a7f14ac1a1d6d58b42c5b0a60d79339143a7e35eb5506b03e3170250535895d6833846040516106db91906114dc565b60405180910390a350505050505050505050565b600160009054906101000a900473ffffffffffffffffffffffffffffffffffffffff1681565b60008054906101000a900473ffffffffffffffffffffffffffffffffffffffff1673ffffffffffffffffffffffffffffffffffffffff163373ffffffffffffffffffffffffffffffffffffffff16146107a3576040517f08c379a000000000000000000000000000000000000000000000000000000000815260040161079a906118ae565b60405180910390fd5b600073ffffffffffffffffffffffffffffffffffffffff168173ffffffffffffffffffffffffffffffffffffffff1603610812576040517f08c379a00000000000000000000000000000000000000000000000000000000081526004016108099061191a565b60405180910390fd5b8073ffffffffffffffffffffffffffffffffffffffff16600160009054906101000a900473ffffffffffffffffffffffffffffffffffffffff1673ffffffffffffffffffffffffffffffffffffffff167fe4e31f0d8c9b7347323d54dd7766c3af36fe7e9e8e101d0ebcccae68cf57957960405160405180910390a380600160006101000a81548173ffffffffffffffffffffffffffffffffffffffff021916908373ffffffffffffffffffffffffffffffffffffffff16021790555050565b60008054906101000a900473ffffffffffffffffffffffffffffffffffffffff1681565b60026020528060005260406000206000915090508060000160009054906101000a900473ffffffffffffffffffffffffffffffffffffffff16908060010160009054906101000a900473ffffffffffffffffffffffffffffffffffffffff16908060020154908060030154908060040160009054906101000a900460ff16905085565b600034116109bc576040517f08c379a00000000000000000000000000000000000000000000000000000000081526004016109b390611986565b60405180910390fd5b6000600260008381526020019081526020016000209050600073ffffffffffffffffffffffffffffffffffffffff168160000160009054906101000a900473ffffffffffffffffffffffffffffffffffffffff1673ffffffffffffffffffffffffffffffffffffffff1603610a7c57338160000160006101000a81548173ffffffffffffffffffffffffffffffffffffffff021916908373ffffffffffffffffffffffffffffffffffffffff160217905550348160020181905550610bee565b600073ffffffffffffffffffffffffffffffffffffffff168160010160009054906101000a900473ffffffffffffffffffffffffffffffffffffffff1673ffffffffffffffffffffffffffffffffffffffff1614610b0f576040517f08c379a0000000000000000000000000000000000000000000000000000000008152600401610b06906119f2565b60405180910390fd5b8060000160009054906101000a900473ffffffffffffffffffffffffffffffffffffffff1673ffffffffffffffffffffffffffffffffffffffff163373ffffffffffffffffffffffffffffffffffffffff1603610ba1576040517f08c379a0000000000000000000000000000000000000000000000000000000008152600401610b9890611a5e565b60405180910390fd5b338160010160006101000a81548173ffffffffffffffffffffffffffffffffffffffff021916908373ffffffffffffffffffffffffffffffffffffffff1602179055503481600301819055505b3373ffffffffffffffffffffffffffffffffffffffff16827f4b83698796bda6c2b0699ae02fc3ec27136d6ba08e36a38db94a2a6d282768b634604051610c3591906114dc565b60405180910390a35050565b60006002600083815260200190815260200160002060040160009054906101000a900460ff169050919050565b34600360003373ffffffffffffffffffffffffffffffffffffffff1673ffffffffffffffffffffffffffffffffffffffff1681526020019081526020016000206000828254610cbd919061177c565b925050819055503373ffffffffffffffffffffffffffffffffffffffff167fe1fffcc4923d04b559f4d29a8bfc6cda04eb5b0d3c460751c2402c5c5cc9109c34604051610d0a91906114dc565b60405180910390a2565b60008054906101000a900473ffffffffffffffffffffffffffffffffffffffff1673ffffffffffffffffffffffffffffffffffffffff163373ffffffffffffffffffffffffffffffffffffffff1614610da2576040517f08c379a0000000000000000000000000000000000000000000000000000000008152600401610d99906118ae565b60405180910390fd5b80600360008473ffffffffffffffffffffffffffffffffffffffff1673ffffffffffffffffffffffffffffffffffffffff168152602001908152602001600020541015610e24576040517f08c379a0000000000000000000000000000000000000000000000000000000008152600401610e1b90611aca565b60405180910390fd5b80600360008473ffffffffffffffffffffffffffffffffffffffff1673ffffffffffffffffffffffffffffffffffffffff1681526020019081526020016000206000828254610e739190611aea565b925050819055508173ffffffffffffffffffffffffffffffffffffffff166108fc829081150290604051600060405180830381858888f19350505050158015610ec0573d6000803e3d6000fd5b508173ffffffffffffffffffffffffffffffffffffffff167f7fcf532c15f0a6db0bd6d0e038bea71d30d808c7d98cb3bf7268a95bf5081b6582604051610f0791906114dc565b60405180910390a25050565b60036020528060005260406000206000915090505481565b6000806000806000806002600088815260200190815260200160002090508060000160009054906101000a900473ffffffffffffffffffffffffffffffffffffffff168160010160009054906101000a900473ffffffffffffffffffffffffffffffffffffffff16826002015483600301548460040160009054906101000a900460ff16955095509550955095505091939590929450565b600081604051602001610fd69190611b75565b604051602081830303815290604052805190602001209050919050565b60006041838390501461103b576040517f08c379a000000000000000000000000000000000000000000000000000000000815260040161103290611be7565b60405180910390fd5b60008060008535925060208601359150604086013560001a9050601b8160ff16101561107157601b8161106e9190611c14565b90505b601b8160ff1614806110865750601c8160ff16145b6110c5576040517f08c379a00000000000000000000000000000000000000000000000000000000081526004016110bc90611c95565b60405180910390fd5b6000600188838686604051600081526020016040526040516110ea9493929190611cd3565b6020604051602081039080840390855afa15801561110c573d6000803e3d6000fd5b505050602060405103519050600073ffffffffffffffffffffffffffffffffffffffff168173ffffffffffffffffffffffffffffffffffffffff1603611187576040517f08c379a000000000000000000000000000000000000000000000000000000000815260040161117e90611d64565b60405180910390fd5b809450505050509392505050565b600080fd5b600080fd5b6000819050919050565b6111b28161119f565b81146111bd57600080fd5b50565b6000813590506111cf816111a9565b92915050565b600073ffffffffffffffffffffffffffffffffffffffff82169050919050565b6000611200826111d5565b9050919050565b611210816111f5565b811461121b57600080fd5b50565b60008135905061122d81611207565b92915050565b600080fd5b600080fd5b600080fd5b60008083601f84011261125857611257611233565b5b8235905067ffffffffffffffff81111561127557611274611238565b5b6020830191508360018202830111156112915761129061123d565b5b9250929050565b600080600080606085870312156112b2576112b1611195565b5b60006112c0878288016111c0565b94505060206112d18782880161121e565b935050604085013567ffffffffffffffff8111156112f2576112f161119a565b5b6112fe87828801611242565b925092505092959194509250565b611315816111f5565b82525050565b6000602082019050611330600083018461130c565b92915050565b60006020828403121561134c5761134b611195565b5b600061135a8482850161121e565b91505092915050565b60006020828403121561137957611378611195565b5b6000611387848285016111c0565b91505092915050565b6000819050919050565b6113a381611390565b82525050565b60008115159050919050565b6113be816113a9565b82525050565b600060a0820190506113d9600083018861130c565b6113e6602083018761130c565b6113f3604083018661139a565b611400606083018561139a565b61140d60808301846113b5565b9695505050505050565b600060208201905061142c60008301846113b5565b92915050565b600061143d826111d5565b9050919050565b61144d81611432565b811461145857600080fd5b50565b60008135905061146a81611444565b92915050565b61147981611390565b811461148457600080fd5b50565b60008135905061149681611470565b92915050565b600080604083850312156114b3576114b2611195565b5b60006114c18582860161145b565b92505060206114d285828601611487565b9150509250929050565b60006020820190506114f1600083018461139a565b92915050565b600082825260208201905092915050565b7f416c726561647920736574746c65640000000000000000000000000000000000600082015250565b600061153e600f836114f7565b915061154982611508565b602082019050919050565b6000602082019050818103600083015261156d81611531565b9050919050565b7f4d61746368206e6f742072656164790000000000000000000000000000000000600082015250565b60006115aa600f836114f7565b91506115b582611574565b602082019050919050565b600060208201905081810360008301526115d98161159d565b9050919050565b7f57696e6e6572206e6f7420696e206d6174636800000000000000000000000000600082015250565b60006116166013836114f7565b9150611621826115e0565b602082019050919050565b6000602082019050818103600083015261164581611609565b9050919050565b6000819050919050565b6116676116628261119f565b61164c565b82525050565b60008160601b9050919050565b60006116858261166d565b9050919050565b60006116978261167a565b9050919050565b6116af6116aa826111f5565b61168c565b82525050565b60006116c18285611656565b6020820191506116d1828461169e565b6014820191508190509392505050565b7f496e76616c696420436c6561724e6f6465207369676e61747572650000000000600082015250565b6000611717601b836114f7565b9150611722826116e1565b602082019050919050565b600060208201905081810360008301526117468161170a565b9050919050565b7f4e487b7100000000000000000000000000000000000000000000000000000000600052601160045260246000fd5b600061178782611390565b915061179283611390565b92508282019050808211156117aa576117a961174d565b5b92915050565b600081905092915050565b50565b60006117cb6000836117b0565b91506117d6826117bb565b600082019050919050565b60006117ec826117be565b9150819050919050565b7f5472616e73666572206661696c65640000000000000000000000000000000000600082015250565b600061182c600f836114f7565b9150611837826117f6565b602082019050919050565b6000602082019050818103600083015261185b8161181f565b9050919050565b7f4f6e6c79206f776e657200000000000000000000000000000000000000000000600082015250565b6000611898600a836114f7565b91506118a382611862565b602082019050919050565b600060208201905081810360008301526118c78161188b565b9050919050565b7f496e76616c6964207369676e6572000000000000000000000000000000000000600082015250565b6000611904600e836114f7565b915061190f826118ce565b602082019050919050565b60006020820190508181036000830152611933816118f7565b9050919050565b7f4d7573742073656e642076616c75650000000000000000000000000000000000600082015250565b6000611970600f836114f7565b915061197b8261193a565b602082019050919050565b6000602082019050818103600083015261199f81611963565b9050919050565b7f4d617463682066756c6c00000000000000000000000000000000000000000000600082015250565b60006119dc600a836114f7565b91506119e7826119a6565b602082019050919050565b60006020820190508181036000830152611a0b816119cf565b9050919050565b7f416c7265616479206a6f696e6564000000000000000000000000000000000000600082015250565b6000611a48600e836114f7565b9150611a5382611a12565b602082019050919050565b60006020820190508181036000830152611a7781611a3b565b9050919050565b7f496e73756666696369656e742062616c616e6365000000000000000000000000600082015250565b6000611ab46014836114f7565b9150611abf82611a7e565b602082019050919050565b60006020820190508181036000830152611ae381611aa7565b9050919050565b6000611af582611390565b9150611b0083611390565b9250828203905081811115611b1857611b1761174d565b5b92915050565b600081905092915050565b7f19457468657265756d205369676e6564204d6573736167653a0a333200000000600082015250565b6000611b5f601c83611b1e565b9150611b6a82611b29565b601c82019050919050565b6000611b8082611b52565b9150611b8c8284611656565b60208201915081905092915050565b7f496e76616c6964207369676e6174757265206c656e6774680000000000000000600082015250565b6000611bd16018836114f7565b9150611bdc82611b9b565b602082019050919050565b60006020820190508181036000830152611c0081611bc4565b9050919050565b600060ff82169050919050565b6000611c1f82611c07565b9150611c2a83611c07565b9250828201905060ff811115611c4357611c4261174d565b5b92915050565b7f496e76616c696420762076616c75650000000000000000000000000000000000600082015250565b6000611c7f600f836114f7565b9150611c8a82611c49565b602082019050919050565b60006020820190508181036000830152611cae81611c72565b9050919050565b611cbe8161119f565b82525050565b611ccd81611c07565b82525050565b6000608082019050611ce86000830187611cb5565b611cf56020830186611cc4565b611d026040830185611cb5565b611d0f6060830184611cb5565b95945050505050565b7f496e76616c6964207369676e6174757265000000000000000000000000000000600082015250565b6000611d4e6011836114f7565b9150611d5982611d18565b602082019050919050565b60006020820190508181036000830152611d7d81611d41565b905091905056fea26469706673582212207473e6a8acd27b3c1247af8f011ef3d5c13a712e330e8efbe1c2490bd61f85d464736f6c63430008130033",
  "linkReferences": {},
  "deployedLinkReferences": {}
}